:020000040800F2
:1000000000000220D91A0008D9090008DD090008FB
:10001000E1090008E5090008E909000800000000FE
:10002000000000000000000000000000ED090008D2
:10003000F109000800000000F5090008F9090008AE
:10004000291B0008291B0008291B0008291B000880
:10005000291B0008291B0008291B0008291B000870
:10006000291B0008291B0008291B0008291B000860
:10007000291B0008291B0008291B0008291B000850
:10008000291B0008291B0008291B0008291B000840
:10009000291B0008291B0008291B0008291B000830
:1000A000291B0008291B0008291B0008291B000820
:1000B000291B0008010A0008291B0008291B000849
:1000C000291B0008291B0008291B0008291B000800
:1000D000291B0008291B0008291B0008291B0008F0
:1000E000291B0008291B0008291B0008291B0008E0
:1000F000291B0008291B0008291B0008291B0008D0
:10010000291B0008291B0008291B0008291B0008BF
:10011000291B0008291B0008291B0008291B0008AF
:10012000291B0008291B0008291B0008291B00089F
:10013000291B00080000000000000000291B000827
:10014000291B0008291B0008291B0008291B00087F
:10015000291B0008291B0008291B0008291B00086F
:10016000291B0008291B0008291B0008291B00085F
:10017000291B0008291B00080000000000000000E7
:08018000291B0008291B0008DF
:10018800044B05481B1A062B02D9044B03B1184728
:10019800704700BF0F0000200C0000200000000086
:1001A80005490648091A891001EBD171491002D096
:1001B800034B03B1184770470C0000200C000020C7
:1001C8000000000010B5064C237843B9FFF7D8FFAC
:1001D800044B13B10448AFF300800123237010BD12
:1001E8000C00002000000000781B000808B5084B30
:1001F8001BB108480849AFF300800848036813B9E1
:10020800BDE80840CCE7064B002BF9D09847F7E744
:1002180000000000781B0008100000200C000020DF
:100228000000000053B94AB9002908BF00281CBFC4
:100238004FF0FF314FF0FF3000F03CB882B0EC4691
:100248002DE9005000F01EF8DDF804E002B00CBC07
:10025800704700BF2DE9F041069C154606460F463B
:10026800984600F029F805FB01F300FB0838A5FBC8
:100278000023B21A434467EB0303C4E90023BDE833
:10028800F08100BF2DE9F041069C904606460F46D6
:100298001D4600F05FF900FB05F5A0FB082308FBED
:1002A8000155B21A2B4467EB0303C4E90023BDE8E8
:1002B800F08100BF704700BF00292DE9F043C0F26C
:1002C800A6800026002BC0F29C80884694469E4655
:1002D800154604460F46002B3DD18A4259D9B2FA39
:1002E80082F33BB1C3F120029F4020FA02F29D4005
:1002F80017439C40290C220CB7FBF1FEA8B201FB66
:100308001E7742EA074700FB0EF3BB420AD97F1962
:100318000EF1FF3280F00581BB4240F20281AEF15E
:10032800020E2F44FF1AA4B2B7FBF1F301FB1377B7
:1003380044EA074700FB03F0B84208D97F1903F1E4
:10034800FF3280F0F080B84240F2ED80023B43EA91
:100358000E43002203E08B420FD900221346341CBF
:1003680018BF012460424FF0000565EB4501584075
:10037800514000196941BDE8F083B3FA83F2002ABD
:1003880040F086808B4202D3844500F2DB80012353
:10039800E5E712B90123B3FBF2F5B5FA85F00028B9
:1003A8003BD1781B4FEA154E1FFA85FC0122B0FBA2
:1003B800FEF8210C0EFB180741EA07470CFB08F36F
:1003C800BB4207D97F1908F1FF3102D2BB4200F2C4
:1003D800BD808846FF1AA4B2B7FBFEF30EFB137765
:1003E80044EA07470CFB03FCBC4507D97F1903F116
:1003F800FF3102D2BC4500F2A7800B4643EA08430E
:10040800ADE752426FEA060663EB43035DE74042FD
:1004180061EB41014FF0FF3654E7C0F1200224FAA6
:1004280002F107FA00F385404FEA154ED740194309
:10043800B7FBFEF20B0C0EFB12771FFA85FC43EAA2
:1004480007430CFB02F79F4204FA00F407D95B1933
:1004580002F1FF3074D29F4272D9023A2B44DF1B5B
:1004680089B2B7FBFEF80EFB187341EA03430CFB95
:1004780008F79F4208D95B1908F1FF315CD29F4207
:100488005AD9A8F102082B44D81B48EA02428EE741
:10049800C2F120032CFA03F10EFA02FE20FA03F748
:1004A80041EA0E0E08FA02F028FA03F14FEA1E4557
:1004B8003843B1FBF5F8030C05FB18111FFA8EF74A
:1004C80043EA014107FB08F38B420CFA02FC09D905
:1004D80011EB0E0108F1FF3930D28B422ED9A8F169
:1004E80002087144C91A80B2B1FBF5F305FB131178
:1004F80040EA014107FB03F78F4208D911EB0E01CF
:1005080003F1FF3016D28F4214D9023B714443EAFB
:100518000843C91BA3FB0C89494509D305D0002210
:100528001DE79646FEE6134611E794404445F6D289
:10053800013BF4E70346EAE78846A5E7C846D1E762
:1005480002468CE713460AE7023B57E7A8F1020880
:100558002F443FE72DE9F041002B44D18A4215464C
:1005680004464FD9B2FA82F70E464FB1C7F12003BD
:10057800B94020FA03F602FA07F50E4300FA07F429
:100588004FEA154E230CB6FBFEF0AFB20EFB10611E
:1005980043EA014307FB00F1994209D95B1900F1CD
:1005A800FF3280F0EC80994240F2E98002382B4417
:1005B8005A1AA4B2B2FBFEF30EFB132244EA02421B
:1005C80007FB03F7974208D9521903F1FF3180F06E
:1005D800D880974240F2D580023B43EA004000268B
:1005E8003146BDE8F0818B4247D8B3FA83F6002E36
:1005F80048D18B4202D3824200F2CD80012031469D
:10060800BDE8F08112B90125B5FBF2F5B5FA85F818
:10061800B8F1000F77D14A1B4FEA154EAFB2012649
:10062800B2FBFEF0230C0EFB102143EA014107FB4D
:1006380000F38B4207D9491900F1FF3202D28B42ED
:1006480000F2BA801046C91AA4B2B1FBFEF30EFB41
:10065800131144EA014407FB03F7A74208D96419B8
:1006680003F1FF3280F08F80A74240F28C80023B7A
:1006780043EA00403146BDE8F08100263046314665
:10068800BDE8F081C6F1200422FA04F5B3402B43FB
:1006980020FA04FC01FA06F721FA04F54FEA134E92
:1006A8004CEA0707B5FBFEF8390C0EFB18551FFA84
:1006B80083FC41EA05450CFB08F1A94202FA06F25F
:1006C80004D9ED1808F1FF3467D3A0466D1ABFB2FC
:1006D800B5FBFEF40EFB145547EA05410CFB04FC80
:1006E8008C4504D9C91804F1FF355CD32C4644EA7B
:1006F8000844CCEB0101A4FB0223994248D344D01F
:10070800204600266CE7C8F1200401FA08F305FA30
:1007180008F520FA04F7E1404FEA154E1F43B1FBF4
:10072800FEF63A0C0EFB16111FFA85FC42EA01434D
:100738000CFB06F29A4200FA08F407D95B1906F195
:10074800FF3137D29A4235D9023E2B449B1ABFB2A9
:10075800B3FBFEF00EFB103347EA03430CFB00F13A
:10076800994207D95B1900F1FF3221D299421FD96A
:1007780002382B445A1A40EA0646674650E71046A4
:1007880016E70B4629E7134672E7B0409042B7D206
:10079800601E002624E7304622E7A94295D9A8F131
:1007A80002081D4492E78C45A0D9023C19449EE7F3
:1007B8001046DFE70E46C9E70238294443E700BF81
:1007C80030B58BB0002405940694079408940994D6
:1007D8000094264B1A6B42F080021A631A6B02F0DF
:1007E80080020092009A01941A6B42F002021A6386
:1007F8001A6B02F002020192019A02941A6B42F0FB
:1008080004021A631A6B02F004020292029A039419
:100818001A6B42F001021A631A6B02F0010203928A
:10082800039A04941A6B42F008021A631B6B03F0D4
:1008380008030493049B0E4D284601210A4601F043
:1008480079F801230593069307940894284605A987
:1008580000F08CFF4FF480730593064B06930794C2
:10086800054805A900F082FF0BB030BD00380240F2
:1008780000040240000011100008024030B58DB09D
:10088800002404940694079408940A940B94019401
:1008980002940D4D0D4B2B606C60AC604FF6FF73EE
:1008A800EB602C61AC610323039301230593099347
:1008B800284603A900F05EFA01940294284601A98B
:1008C80000F0A8FA0DB030BD280000200004004058
:1008D80008B50848084B03604FF4E1334360002330
:1008E8008360C36003610C2242618361C36100F0CD
:1008F800BFFB08BD680000200044004030B595B03B
:100908000024089409940A940B940C940D940E9462
:100918000F941094119412941394039404940594CE
:100928000694079401941C4B1A6C42F080521A6486
:100938001B6C03F080530193019B0294174B1A68B8
:1009480042F480421A601B6803F480430293029BBE
:10095800012308934FF48033099302250E954FF431
:1009680080030F9304231093A822119212951393D6
:1009780008A800F0AFFB0F230393049505944FF4E8
:10098800A05306934FF48053079303A8052100F062
:1009980013FE15B030BD00BF0038024000700040A3
:1009A80008B501F05BF8FFF7A9FFFFF709FFFFF7AC
:1009B80065FFFFF78DFF04480121002200F0BAFF10
:1009C800024B1B685B6AF6E700040240280000201F
:1009D800704700BFFEE700BFFEE700BFFEE700BFAD
:1009E800FEE700BF704700BF704700BF704700BFF9
:1009F80008B501F04DF808BD08B5024800F09CF8AC
:100A080008BD00BF2800002082B0002100910B4BD8
:100A18005A6C42F480425A645A6C02F48042009242
:100A2800009A01911A6C42F080521A641B6C03F010
:100A380080530193019B02B0704700BF0038024009
:100A480010B588B000230393049305930693079386
:100A58000268164B9A4227D10024019403F50D33FE
:100A68001A6C42F002021A641A6C02F00202019235
:100A7800019A02941A6B42F004021A631B6B03F08A
:100A880004030293029BC023039302230493079356
:100A9800074803A900F06AFE1D202146224600F0FF
:100AA80061FF1D2000F090FF08B010BD0004004059
:100AB8000008024000B589B000230393049305930E
:100AC800069307930268154B9A4224D1002101919D
:100AD80003F5FA331A6C42F400321A641A6C02F401
:100AE80000320192019A02911A6B42F008021A63CD
:100AF8001B6B03F008030293029B602303930223FA
:100B080004930123059303230693072307930448BB
:100B180003A900F02BFE09B05DF804FB0044004077
:100B2800000C0240704700BF704700BF704700BF0D
:100B3800704700BF704700BF10B5044603681A69C4
:100B480012F0020F17D0DA6812F0020F13D06FF00C
:100B580002021A610123037703689B6913F0030FEC
:100B680002D0FFF7E3FF04E0FFF7DEFF2046FFF7C0
:100B7800DFFF0023237723681A6912F0040F19D0C6
:100B8800DA6812F0040F15D06FF004021A6102231C
:100B9800237723689B6913F4407F03D02046FFF72F
:100BA800C5FF05E02046FFF7BFFF2046FFF7C0FF5F
:100BB8000023237723681A6912F0080F19D0DA681E
:100BC80012F0080F15D06FF008021A61042323777A
:100BD8002368DB6913F0030F03D02046FFF7A6FF55
:100BE80005E02046FFF7A0FF2046FFF7A1FF0023FE
:100BF800237723681A6912F0100F19D0DA6812F0F7
:100C0800100F15D06FF010021A610823237723689C
:100C1800DB6913F4407F03D02046FFF787FF05E028
:100C28002046FFF781FF2046FFF782FF0023237746
:100C380023681A6912F0010F09D0DA6812F0010F5F
:100C480005D06FF001021A612046FFF76BFF236899
:100C58001A6912F0800F09D0DA6812F0800F05D0F7
:100C68006FF080021A61204600F01CF923681A69A7
:100C780012F0400F09D0DA6812F0400F05D06FF07B
:100C880040021A612046FFF755FF23681A6912F0DF
:100C9800200F09D0DA6812F0200F05D06FF020027B
:100CA8001A61204600F0FCF810BD00BF0368304A06
:100CB800904212D0B0F1804F0FD0A2F57C42904202
:100CC8000BD002F58062904207D002F58062904214
:100CD80003D002F57842904203D123F070034A68AA
:100CE8001343234A90422AD0B0F1804F27D0A2F56F
:100CF8007C42904223D002F5806290421FD002F5D8
:100D0800806290421BD002F57842904217D002F5DB
:100D18007052904213D002F5806290420FD002F5D3
:100D2800806290420BD0A2F59832904207D002F52B
:100D38008062904203D002F58062904203D123F48E
:100D48004073CA68134323F080034A69134303605E
:100D58008B68C3620B688362054B984203D003F526
:100D68008063984201D10B69036301234361704793
:100D78000000014000284AD0F8B505460C4690F816
:100D88003D3013F0FF0F04D1002380F83C30FFF70B
:100D980057FE022385F83D302A68936823F4804380
:100DA80023F007039360294651F8040BFFF77EFFF1
:100DB800286883688269016A26681E4322F44072A3
:100DC80022F00302A368A76943EA0723134323F425
:100DD8007C4323F0FC03E268E76942EA07221343F5
:100DE8002769226A120342EA0712134321F0AA0173
:100DF8006268646942EA04120A43866029688B6162
:100E08002B681A62012385F83D300020F8BD0120C7
:100E1800704700BF90F83C30012B3AD030B4012322
:100E280080F83C30022380F83D3004686368A2688B
:100E380023F070030D682B4363600368174CA342CB
:100E48001AD0B3F1804F17D0A4F57C44A34213D035
:100E580004F58064A3420FD004F58064A3420BD04C
:100E680004F57844A34207D004F57054A34203D094
:100E7800A4F59434A34204D122F0800249680A43BD
:100E88009A60012380F83D30002380F83C301846F2
:100E980001E00220704730BC704700BF00000140ED
:100EA800704700BF704700BFF8B5044601680B697A
:100EB80023F44052C36813430B61826803691A43E1
:100EC80043691A43C36913430168CA6822F4164286
:100ED80022F00C021343CB6001684B6923F4407283
:100EE800836913434B61C369B3F5004F61D103684C
:100EF8005D4A934203D002F5806293422CD100F000
:100F080025FC25680021061841EB010736184F41DA
:100F1800FB0043EA5673F20016461F466268002338
:100F28008019794192185B41FFF77CF94F4BA3FB7D
:100F380000125109642202FB1102D2003232A3FBD3
:100F480002235B0903F0F802520002EB011203F0DE
:100F580007031344AB60F8BD00F0E8FB25680021E7
:100F6800061841EB010736184F41FB0043EA567358
:100F7800F20016461F4662680023801979419218CC
:100F88005B41FFF74FF9394BA3FB0012510964226B
:100F980002FB1102D2003232A3FB02235B0903F0E9
:100FA800F802520002EB011203F007031344AB608E
:100FB800F8BD03682C4A934203D002F5806293423D
:100FC80028D100F0C3FB25680021021841EB01037A
:100FD80012184B41DE0046EA5276D7006468C01901
:100FE8007141A200A30FFFF71DF9204BA3FB0021BD
:100FF8004909642202FB110212013232A3FB0223C7
:101008005B0903F0F00202EB011103F00F030B443C
:10101800AB60F8BD00F08AFB25680021021841EB9F
:10102800010312184B41DE0046EA5276D700646885
:10103800C0197141A200A30FFFF7F4F80B4BA3FBF3
:1010480000214909642202FB110212013232A3FB7A
:1010580002235B0903F0F00202EB011103F00F0316
:101068000B44AB60F8BD00BF001001401F85EB5179
:1010780068B310B5044690F8393013F0FF0F04D167
:10108800002380F83830FFF715FD242384F8393021
:101098002268D36823F40053D3602046FFF704FF87
:1010A8002268136923F4904313612268536923F07B
:1010B8002A0353612268D36843F40053D3600020A5
:1010C800E063202384F8393084F83A3010BD0120D9
:1010D800704700BF002800F0D78170B582B0044681
:1010E800036813F0010F5AD0A04B9B6803F00C0360
:1010F800042B0AD09D4B9B6803F00C03082B0DD1E1
:101108009A4B5B6813F4800F08D0984B1B6813F454
:10111800003F44D06368002B41D1B7E16368B3F561
:10112800803F05D1914A136843F48033136015E07A
:10113800B3F5A02F09D18D4B1A6842F480221A60AA
:101148001A6842F480321A6008E0884B1A6822F460
:1011580080321A601A6822F480221A6063687BB1B0
:1011680000F0A2FC054605E000F09EFC401B642848
:1011780000F28E817D4B1B6813F4003FF4D00EE023
:1011880000F092FC054605E000F08EFC401B642848
:1011980000F28081754B1B6813F4003FF4D123687B
:1011A80013F0020F50D0714B9B6813F00C0F0AD04C
:1011B8006E4B9B6803F00C03082B16D16B4B5B68D6
:1011C80013F4800F11D1694B1B6813F0020F03D081
:1011D800E368012B40F06081644A136823F0F80348
:1011E800216943EAC10313602EE0E368D3B1012209
:1011F8005F4B1A6000F058FC054605E000F054FC0F
:10120800401B022800F24A81584B1B6813F0020F5A
:10121800F4D0564A136823F0F803216943EAC1035E
:10122800136011E00022524B1A6000F03DFC0546A5
:1012380005E000F039FC401B022800F231814B4BDD
:101248001B6813F0020FF4D1236813F0080F26D09F
:10125800636993B10122474B1A6000F025FC0546EB
:1012680005E000F021FC401B022800F21B813F4BE7
:101278005B6F13F0020FF4D011E000223D4B1A60AF
:1012880000F012FC054605E000F00EFC401B0228A9
:1012980000F20A81354B5B6F13F0020FF4D123681B
:1012A80013F0040F7DD0314B1B6C13F0805F0DD110
:1012B800002301932D4B1A6C42F080521A641B6C68
:1012C80003F080530193019B012500E000252A4B80
:1012D8001B6813F4807F13D1274A136843F4807383
:1012E800136000F0E1FB064605E000F0DDFB801B23
:1012F800022800F2DB80204B1B6813F4807FF4D0B7
:10130800A368012B05D1194A136F43F00103136732
:1013180014E0052B09D1154B1A6F42F004021A6725
:101328001A6F42F001021A6708E0104B1A6F22F098
:1013380001021A671A6F22F004021A67A3688BB1B8
:1013480000F0B2FB064607E000F0AEFB801B41F25E
:101358008833984200F2AC80044B1B6F13F0020FE5
:10136800F2D018E000F0A0FB06460FE0003802407B
:1013780000004742800E47420070004000F094FB96
:10138800801B41F28833984200F29480554B1B6FC2
:1013980013F0020FF2D125B1524A136C23F0805397
:1013A8001364A369002B00F087804E4A926802F00C
:1013B8000C02082A48D0022B33D100224A4B1A606B
:1013C80000F072FB054604E000F06EFB401B0228AB
:1013D80074D8444B1B6813F0007FF5D1E269236A87
:1013E8001343626A43EA8213A26A5208013A43EA43
:1013F8000243E26A43EA02633A4A536001223A4BE3
:101408001A6000F051FB044604E000F04DFB001B9D
:10141800022855D8334B1B6813F0007FF5D0002005
:101428005DE00022304B1A6000F03EFB044604E009
:1014380000F03AFB001B022844D82A4B1B6813F023
:10144800007FF5D100204AE0012B3DD0254B9B6859
:1014580003F48001E269914238D103F03F02216A26
:101468008A4235D1616A47F6C0721A408A4231D140
:1014780003F44032A16A8A422ED103F07063E26A13
:1014880093422BD001202AE001207047012026E05A
:10149800032024E0032022E0012020E003201EE0B6
:1014A80003201CE003201AE0032018E0032016E0C4
:1014B800032014E0032012E0002010E003200EE0D7
:1014C80003200CE003200AE0012008E0012006E0E8
:1014D800012004E0012002E0012000E0002002B029
:1014E80070BD00BF003802406000474238B52F4B3E
:1014F8009B6803F00C03042B55D0082B01D02C4813
:1015080038BD2A4B5A6802F03F025B6813F4800F1B
:1015180020D0264B5B68C3F38813DC0000256901E3
:1015280041EAD4616001041B61EB0505A90141EAA8
:101538009461A001001B61EB0501C01841F1000195
:101548004B0243EAD0534402204619460023FEF7D3
:1015580069FE1FE0154B5B68C3F38813DC000025A8
:10156800690141EAD4616001041B61EB0505A90129
:1015780041EA9461A001001B61EB0501C01841F12B
:1015880000018B0243EA9053840220461946002347
:10159800FEF748FE054B5B68C3F3014301335B006C
:1015A800B0FBF3F038BD034838BD00BF0038024037
:1015B8000024F40000127A00002800F0988070B52A
:1015C8000D460446514B1B6803F00F038B4208D2AB
:1015D800CBB24E4A1370136803F00F038B4240F0EE
:1015E8008880236813F0020F17D013F0040F04D07B
:1015F800474A936843F4E0539360236813F0080F55
:1016080004D0434A936843F46043936040498B682D
:1016180023F0F002A36813438B60236813F0010FD3
:101628002FD06268012A05D1394B1B6813F4003F9B
:101638000ED160E0931E012B05D8354B1B6813F0C3
:10164800007F05D159E0324B1B6813F0020F56D0CA
:101658002F498B6823F0030313438B6000F024FAAF
:10166800064606E000F020FA801B41F288339842D3
:1016780047D8274B9B6803F00C036268B3EB820FD3
:10168800F0D1224B1B6803F00F03AB4207D9EAB233
:101698001E4B1A701B6803F00F03AB4233D123684B
:1016A80013F0040F06D01A498B6823F4E052E3685C
:1016B80013438B60236813F0080F07D0144A93680C
:1016C80023F46043216943EAC1039360FFF70EFFE7
:1016D8000F4B9B68C3F303130E4AD35CD8400E4BE1
:1016E80018600E4B186800F093F9002070BD0120B7
:1016F8007047012070BD012070BD012070BD012020
:1017080070BD032070BD012070BD00BF003C0240C9
:1017180000380240901B000808000020000000204C
:10172800014B1868704700BF0800002008B5FFF794
:10173800F7FF044B9B68C3F38223034AD35CD8406A
:1017480008BD00BF00380240A01B000808B5FFF71D
:10175800E7FF044B9B68C3F34233034AD35CD8408A
:1017680008BD00BF00380240A01B0008F0B583B0D8
:101778000023D2E01D4601229A400C68144094428E
:1017880040F0CA804E68771E012F03D9112E01D070
:10179800122E15D187684FEA430E032606FA0EF675
:1017A80027EA0607CE6806FA0EF63E4386604668C4
:1017B80026EA02064A68C2F30012AA40324342608F
:1017C800C5685F000322BA40D24302EA05068D6865
:1017D800BD403543C5604D68022D01D0122D14D18E
:1017E8004FEAD30C0CF1080C50F82C6003F0070EEC
:1017F8004FEA8E0E0F2505FA0EF526EA05060D6945
:1018080005FA0EF5354340F82C50056815404A682E
:1018180002F00302BA402A4302604A6812F0805F6D
:101828007AD0002201923F4A556C45F480455564B0
:10183800526C02F480420192019A9A08961C3A4D21
:1018480055F8266003F00307BF000F25BD4026EAC0
:101858000506364DA8422BD005F58065A84225D04F
:1018680005F58065A8421FD005F58065A84219D006
:1018780005F58065A84213D005F58065A8420DD00E
:1018880005F58065A84207D005F58065A84201D115
:1018980007250EE008250CE006250AE0052508E0E6
:1018A800042506E0032504E0022502E0012500E006
:1018B8000025BD40354302321B4E46F822501C4AD3
:1018C8001568E24302EA05064F6817F4803F01D025
:1018D80044EA0506164D2E606D6802EA05064F6853
:1018E80017F4003F01D044EA0506114D6E60AD685B
:1018F80002EA05064F6817F4801F01D044EA05067E
:101908000B4DAE60ED682A404E6816F4001F01D0FA
:1019180044EA0502064CE26001330F2B7FF62AAF3A
:1019280003B0F0BD0038024000380140000002401A
:10193800003C01400AB18161704709048161704728
:1019480000F00700064AD36823F4E0631B041B0C6D
:1019580043EA002040F0BF6040F40030D060704798
:1019680000ED00E030B4164BDC68C4F30224C4F187
:101978000705042D28BF0425231D062B01D9033C88
:1019880000E00024012303FA05F5013D2940A140A8
:10199800A340013B1A400A43002808DB1201D2B2D7
:1019A80000F1604000F5614080F8002305E000F098
:1019B8000F001201D2B2034B1A5430BC704700BF5B
:1019C80000ED00E014ED00E0002807DB410900F01D
:1019D8001F0001238340024A42F82130704700BFAC
:1019E80000E100E00138B0F1807F0AD2064B586070
:1019F800F021064A82F823100020986007221A6016
:101A080070470120704700BF10E000E000ED00E0E3
:101A180010B504460E4B18784FF47A73B3FBF0F305
:101A28000C4A1068B0FBF3F0FFF7DCFF58B90F2C35
:101A38000BD84FF0FF3021460022FFF793FF064BEB
:101A48001C60002010BD012010BD012010BD00BF8A
:101A580004000020080000200000002008B50B4BFF
:101A68001A6842F400721A601A6842F480621A60B6
:101A78001A6842F480721A600320FFF761FF0020A1
:101A8800FFF7C6FFFEF7C0FF002008BD003C02407C
:101A9800034A1368034909780B441360704700BF71
:101AA800A800002004000020014B1868704700BF00
:101AB800A8000020054BD3F8882042F47002C3F830
:101AC80088204FF000629A60704700BF00ED00E088
:101AD800DFF834D0002103E00C4B5B58435004314D
:101AE8000B480C4B42189A42F6D30B4A02E00023EB
:101AF80042F8043B094B9A42F9D3FFF7DBFF00F0A9
:101B080011F8FEF74DFF704700000220B81B0008CF
:101B1800000000200C0000200C000020AC00002079
:101B2800FEE7000070B50E4B0E4CE41AA410002519
:101B38001E46A54204D056F8253098470135F8E7E7
:101B480000F016F8084C094BE41AA41000251E46AC
:101B5800A54204D056F8253098470135F8E770BDFE
:101B6800B01B0008B01B0008B41B0008B01B00081D
:101B7800F8B500BFF8BC08BC9E467047F8B500BF72
:081B8800F8BC08BC9E46704742
:101B9000000000000000000001020304060708091D
:081BA000000000000102030433
:081BA80018E7FF7F01000000B7
:041BB000F501000833
:041BB400CD01000857
:0C1BB80010000000010000000024F400F8
:0400000508001AD9FC
:00000001FF
